:020000040800F2
:10000000B845002091020008000000000000000038
:1000100000000000000000000000000000000000E0
:10002000000000000000000000000000D1010008F6
:1000300000000000000000002D0200080D0500086F
:1000400000000000000000000000000000000000B0
:1000500000000000000000000000000000000000A0
:100060000000000000000000000000000000000090
:100070000000000000000000000000000000000080
:100080000000000000000000000000000000000070
:100090000000000000000000000000000000000060
:1000A0000000000000000000000000000000000050
:1000B0000000000000000000000000000000000040
:1000C0000000000000000000000000000000000030
:1000D0000000000000000000000000000000000020
:1000E0000000000000000000000000000000000010
:1000F0000000000000000000000000000000000000
:1001000000000000000000000000000000000000EF
:1001100000000000000000000000000000000000DF
:1001200000000000000000000000000000000000CF
:1001300000000000000000000000000000000000BF
:1001400000000000000000000000000000000000AF
:10015000000000000000000000000000000000009F
:10016000000000000000000000000000000000008F
:10017000000000000000000000000000000000007F
:10018000000000000000000000000000000000006F
:100190000000000000000000DFF810D000F094F92B
:1001A0000048004735050008AFF30080B84500203F
:1001B000344B19680868B0E8F04F80F30988BFF342
:1001C0006F8F4FF0000080F311887047000000002F
:1001D0002C4B19680868B0E8F04F80F30988BFF32A
:1001E0006F8F4FF0000080F311887047000000000F
:1001F00008480068006880F308884FF0000080F32A
:10020000148862B661B6BFF34F8FBFF36F8F00DF04
:1002100000BF00BF08ED00E0DFF80C00016841F40A
:1002200070010160704700BF88ED00E0EFF30980C6
:10023000BFF36F8F134B1A681EF0100F08BF20ED2D
:10024000108A20E9F04F106009B44FF0500080F39D
:100250001188BFF34F8FBFF36F8F01F00BFA4FF090
:10026000000080F3118809BC19680868B0E8F04FF5
:100270001EF0100F08BFB0EC108A80F30988BFF39E
:100280006F8F704700000020EFF30580704700007B
:100290007248016841F47001016000F007F800F055
:1002A0009BF86F480047FEE7FEE7FEE772B66D4831
:1002B00000F10000016841F001010160694800F1AE
:1002C00008004FF000010160664800F1000001687D
:1002D0004FF0000202F17E4202F5760202F57F4203
:1002E00002F1FF0201EA020101605E4800F1040030
:1002F0004FF0105101F5405101F1100101605948D2
:1003000000F10000016821F480210160554800F1EE
:100310000C004FF000010160524800F1000001683C
:1003200041F4803101604F4800F14000016841F024
:10033000805101604C4800F10000016841F44041E7
:100340000160484800F10800016841F480510160F3
:10035000444800F10000016821F0807101604148CB
:1003600000F104004FF08C6101F1080101F58021DA
:1003700001603C4800F10000016841F080710160BB
:100380003A4800F1000001684FF0000202F5E06217
:1003900002F1030241EA02010160324800F1080063
:1003A000016821F0030101602E4800F10800016896
:1003B00041F0020101602E48016821F4E061016012
:1003C0002C48016841F0400101602B4801684FF062
:1003D0000001016062B67047224800F130000168F8
:1003E00041F004010160254800F1000001686FF050
:1003F0004062114441F080610160204800F1040036
:1004000001686FF40052114441F0000101601B4883
:1004100000F1080001686FF40052114441F00061DE
:100420000160164800F10C0001686FF4005211449D
:1004300041F0006101607047104800F1140001684C
:1004400041F40051016070470C4800F1140001684C
:100450006FF4005201EA02010160704788ED00E08C
:10046000990100080038024000700040003C024042
:100470000CED00E000E100E018ED00E000080240B3
:1004800040EA01039B0703D009E008C9121F08C016
:10049000042AFAD203E011F8013B00F8013B521E96
:1004A000F9D27047D2B201E000F8012B491EFBD20D
:1004B00070470022F6E710B513460A46044619466F
:1004C000FFF7F0FF204610BD064C074D06E0E06840
:1004D00040F0010394E8070098471034AC42F6D38B
:1004E000FFF75EFE84230008A423000805E0FFF761
:1004F000A3FF4FF4966000F087FFF8E705E0FFF7F1
:10050000A3FF4FF4FA7000F07FFFF8E710B501F099
:10051000ADF910BD02E008C8121F08C1002AFAD1C7
:1005200070477047002001E001C1121F002AFBD173
:10053000704700001CB50748012100238022CDE947
:10054000001005A1074801F0A9FC01F03DF800BF2B
:10055000FEE700008000002073746172745F7461B4
:10056000736B0000D51000082DE9F04105460E46DA
:100570001648076816480068001D00F0DDFD681C7D
:1005800038B936B112480168091D124800F012FE50
:100590001AE07C190E4800684460BC4207D20C483F
:1005A0000168091D0C48006800F0EAFD0CE00848ED
:1005B0000168091D0948006800F0E2FD084800686C
:1005C000844201D206480460BDE8F0811400002096
:1005D000000000207C05002008000020040000200E
:1005E0003000002010B5044600F0F0FD24480068FB
:1005F000401C234908602348006840B92148046032
:100600000846006801280DD100F0D6F90AE01E481E
:10061000006838B91B480068C06AE16A884201D89E
:100620001848046019480068401C184908600846CA
:10063000006860651649E06A0968884202D9144971
:10064000E06A0860E16A01EB8101124A02EB810075
:10065000211D00F0AFFD00F0E3FD0B48006868B11C
:1006600008480068C06AE16A884207D24FF08050AB
:1006700009490860BFF34F8FBFF36F8F10BD0000B3
:1006800010000020000000201C0000202C00002092
:1006900018000020CC00002004ED00E010B500F0B0
:1006A00095FD10480068D0B90F4800F059FD0F487B
:1006B00000F056FD0C480E4908600C480D490860D2
:1006C000002210210A2001F0EBF8064908600846D4
:1006D000006820B108A10348006800F059FE00F04E
:1006E0009FFD10BD4800002090050020A4050020BB
:1006F0004000002044000020546D725100000000B2
:1007000010B516E000F062FD0C48C068C468201DFA
:1007100000F012FD0A480068401E094908600948B7
:100720000068401E0749086000F07AFD204600F08E
:100730005FF8044800680028E4D110BD6805002077
:10074000100000200C00002070B504460D46206CFF
:1007500070B1216CE0680144E160D4E90210884284
:1007600001D32168E1602846226CE168FFF788FE2A
:1007700070BD2DE9F04104460F4615464FF00008C4
:10078000A66B206C48B9206800282CD1A06801F025
:100790006DFC80460020A06025E07DB93946226CC2
:1007A0006068FFF76DFE216C606808446060D4E902
:1007B0000101884217D32068606014E03946226C3A
:1007C000E068FFF75DFE216CE068411AE160216896
:1007D000E068884203D2216CA068411AE160022DD2
:1007E00001D106B1761E701CA0634046BDE8F081C1
:1007F00010B50446206B00F031FD204600F02EFDC0
:1008000010BD00000146084A126812680AB90122A8
:1008100000E000220A600A6822B9034A1268D2681E
:10082000106800E0002070474000002030B54FF411
:100830007053174800F007042CB1C01D20F00700CA
:10084000134C041B1B1B0246124C22600024114D4A
:100850006C60D018083820F007000F4C206000248E
:100860000D4D2D686C600C4D2D682C601146441A9E
:100870004C60094C24680C60084D4C682C60084D95
:100880004C682C604FF00044064D2C6030BD0000D9
:10089000B8050020540000205C0000206400002007
:1008A000600000207000002000BFFFF729FF06480D
:1008B00000680128F9D94FF0805004490860BFF35F
:1008C0004F8FBFF36F8FF0E7CC00002004ED00E006
:1008D0002DE9F04106460D4617469846069C0DB98F
:1008E000246000E02760E66325640121204601F0D2
:1008F00029F884F84C80BDE8F0812DE9F05F82464C
:100900000E4690469B460A9F0C9C4FEA8801A52202
:10091000206BFFF7C7FDA8F10100216B01EB8009F7
:1009200029F0070909F0070008B9012000E00020BC
:1009300050B900BF502080F31188BFF34F8FBFF331
:100940006F8F00BF00BFFEE786B1002507E0715D35
:1009500004F134004155705D00B902E06D1C202D9A
:10096000F5D300BF00215320015502E0002084F898
:100970003400382F00D33727E762E7650020206670
:10098000201D00F0FAFB04F1180000F0F6FB2461D2
:10099000C7F13800A06164620020606684F86800D6
:1009A0005A465146484600F07FFB20600B9808B13C
:1009B0000B980460BDE8F09F10B5002407E004EB3D
:1009C00084010F4A02EB810000F0CAFB641C382C42
:1009D000F5D30C4800F0C4FB0B4800F0C1FB0B48FA
:1009E00000F0BEFB0A4800F0BBFB0A4800F0B8FB71
:1009F00004480949086004480849086010BD00001F
:100A0000CC0000202C0500204005002054050020CB
:100A1000680500207C05002004000020080000205C
:100A200010B50146164800E0006803688B42FBD30E
:100A30000246436813448B4204D143684C68234404
:100A4000436001460A464B6813440468A34211D12F
:100A50000C4C03682468A34208D04B68046864689F
:100A600023444B6003681B680B6005E0054B1B6863
:100A70000B6001E003680B60884200D0016010BD8C
:100A8000540000205C0000202DE9F04104460D4692
:100A900016461F464FF0000865602461B5420CD829
:100AA000F01BA169884202D34FF0010811E0211D1B
:100AB0000948006800F064FB0BE0BE4204D2BD426E
:100AC00002D34FF0010804E0211D0448006800F043
:100AD00057FB4046BDE8F081440000204000002064
:100AE00070B5054600F072FBA86B08B9012400E060
:100AF000002400F095FB204670BD70B5054600F05F
:100B000065FBA86BE96B884201D1012400E0002459
:100B100000F086FB204670BDF8B505460F461A4822
:100B20000068C068C468201D00F006FB94F8280027
:100B300000F00400E8B1A06941192B463A4620466E
:100B4000FFF7A2FFD8B1002003462A4601460090D5
:100B5000204601F0D5FB064656B900BF502080F371
:100B60001188BFF34F8FBFF36F8F00BF00BFFEE749
:100B700005E094F8280020F0010084F828002046C1
:100B8000216A8847F8BD000040000020F0B587B01A
:100B9000A0E00398002811DA04AE56B900BF502037
:100BA00080F31188BFF34F8FBFF36F8F00BF00BF7B
:100BB000FEE7D6E90020B168904700BF03980028FF
:100BC000E6DB059C606908B9012000E0002010B94F
:100BD000201D00F0B1FA02A800F0DCF805460398E9
:100BE0000A2875D2DFE800F00905073941630608D5
:100BF0003A4200BF00BF00BF00BF94F8280040F099
:100C0000010084F828000498A269811803462A4646
:100C10002046FFF739FFF8B12046216A884794F84B
:100C2000280000F00400B8B1002000900498A169E9
:100C3000421800231946204601F062FB074657B9C7
:100C400000BF502080F31188BFF34F8FBFF36F8F29
:100C500000BF00BFFEE700BF3BE000BF94F82800E4
:100C600020F0010084F8280033E000BF94F8280049
:100C700040F0010084F828000498A061A06908B140
:100C8000012000E0002050B900BF502080F31188FF
:100C9000BFF34F8FBFF36F8F00BF00BFFEE7A069A8
:100CA00041192B462A462046FFF7EEFE11E094F844
:100CB000280000F0020018B9204600F0CFFA05E045
:100CC00094F8280020F0010084F8280001E0FFE7F4
:100CD00000BF00BF002203A90448006800F0E2FF43
:100CE00000287FF456AF07B0F0BD00004800002098
:100CF000F8B505460C4600F0B5FC684600F04AF829
:100D00000646009820BB44B9B54206D801F04CFA1B
:100D100031462846FFF700FF1CE03CB10E48006852
:100D2000006808B9012000E000200446A91B224603
:100D30000A48006800F042FB01F036FA50B94FF063
:100D4000805007490860BFF34F8FBFF36F8F01E0FA
:100D500001F02AFAF8BD00004400002048000020FD
:100D600004ED00E009480068006808B9012000E0CF
:100D7000002020B14FF0FF300549086005E003482E
:100D80000068C068006802490860704704000020DD
:100D90003000002070B5044601F0C0F80546074851
:100DA0000068854204D200F00BF80120206001E0C9
:100DB0000020206001480560284670BD50000020DA
:100DC0002DE9F84334E025480068C06805682348E9
:100DD0000068C068C468201D00F0AEF92046216A92
:100DE000884794F8280000F0040008B3A069461969
:100DF000AE4207D966602461211D1848006800F0E2
:100E0000BFF915E0002003462A460146009020461F
:100E100001F076FA074657B900BF502080F31188D9
:100E2000BFF34F8FBFF36F8F00BF00BFFEE700BF60
:100E30000A480068006808B9012000E00020002886
:100E4000C1D00648D0F80080054800680349086012
:100E50000348C0F80080BDE8F8830000400000208F
:100E6000440000200E480068401C08B9012000E042
:100E7000002050B900BF502080F31188BFF34F8F7E
:100E8000BFF36F8F00BF00BFFEE700BF502080F3AD
:100E90001188BFF34F8FBFF36F8F00BF00BFFEE716
:100EA0007400002008B500BF6846FFF7ABFC04469D
:100EB00020460099FFF71CFFFFF768FEF4E770B5C6
:100EC000044600F083F994F9455010E0606A08B9CF
:100ED000012000E0002038B904F1240001F018F9E5
:100EE00018B100F02FFB00E003E0681E45B2002DB2
:100EF000ECDC00BFFF2084F8450000F091F900F021
:100F000065F994F9445010E0206908B9012000E027
:100F1000002048B904F1100001F0FAF808B100F01F
:100F200011FB681E45B200E001E0002DECDC00BFC3
:100F3000FF2084F8440000F073F970BD2DE9F04102
:100F400004464FF0000800F08DFB5148006808B9D6
:100F5000FFF76CFC4F480068204000287ED13CB36E
:100F600004F10800A04223D9083404F0070000B3BC
:100F700004F00700C0F108002044A04216D904F094
:100F80000700C0F10800044404F0070008B901207C
:100F900000E0002068B900BF502080F31188BFF343
:100FA0004F8FBFF36F8F00BF00BFFEE7002400E04C
:100FB0000024002C54D038480068844250D8374E62
:100FC0003046056801E02E462D686868A04202D2CE
:100FD00028680028F7D12E480068854240D0306844
:100FE00000F10808286830606868001B102819D9CB
:100FF0002F1907F0070008B9012000E0002050B9C0
:1010000000BF502080F31188BFF34F8FBFF36F8F65
:1010100000BF00BFFEE76868001B78606C60384660
:10102000FFF7FEFC1C4968680968081A1A4908603D
:10103000084600681A490968884203D216480068C1
:101040001749086013496868096808436860002008
:10105000286014480068401C124900E000E0086065
:1010600001F0A2F808F0070008B9012000E0002014
:1010700050B900BF502080F31188BFF34F8FBFF3EA
:101080006F8F00BF00BFFEE74046BDE8F081000063
:101090005C00002070000020600000205400002050
:1010A0006400002068000020001F4FF08073036080
:1010B000001F21F001030360001F054B036014387B
:1010C0000260001F6FF002030360203870470000C9
:1010D000650E00081CB504460C480221002380223E
:1010E000CDE900100AA10D4800F0D8FE0C480321FC
:1010F00000238022CDE900100AA10D4800F0CEFEA9
:101100000C48006800F0AEF91CBD0000840000200F
:101110004C45444F4E5F7461736B0000FD04000842
:10112000880000204C45444F46465F7461736B0055
:10113000ED0400088000002001460A69D1E9013071
:101140009860D1E9010358605068884201D18868ED
:101150005060002008611068401E106010687047E1
:1011600000F1080141604FF0FF31816000F108019A
:10117000C160016100210160704700210161704779
:1011800010B502460B685C1C0CB9106907E002F14F
:10119000080000E04068446824689C42FAD944682A
:1011A0004C604C68A160886041600A611468641CEE
:1011B000146010BD42684A6093688B609368596000
:1011C0009160086103685B1C0360704700BF50209A
:1011D00080F31188BFF34F8FBFF36F8F00BF0E48AE
:1011E0000068401C0C49086008460068012812D1BC
:1011F0000A480068C0B208B9012000E0002050B9D8
:1012000000BF502080F31188BFF34F8FBFF36F8F63
:1012100000BF00BFFEE770477400002004ED00E04F
:101220000D48006850B900BF502080F31188BFF30B
:101230004F8FBFF36F8F00BF00BFFEE70648006807
:10124000401E054908600846006820B9002080F368
:10125000118800BF00BF70477400002070B50646BB
:101260003546002E44D0083D2C4622496068096866
:10127000084008B1012000E0002050B900BF502014
:1012800080F31188BFF34F8FBFF36F8F00BF00BF94
:10129000FEE7206808B9012000E0002050B900BF37
:1012A000502080F31188BFF34F8FBFF36F8F00BFC3
:1012B00000BFFEE70F49606809680840C0B12068B8
:1012C000B0B90C49606809688843606000F0CAF9E9
:1012D0000949606809680844074908602046FFF723
:1012E0009FFB06480068401C0449086000F05CFF52
:1012F00070BD000070000020600000206C00002025
:1013000000204FF0E0210861886102484861072011
:10131000086170479F86010070B5FEF7B5FF04466F
:10132000102C16D304F1E02090F8F0531548007803
:10133000854201DB012000E0002050B900BF5020B1
:1013400080F31188BFF34F8FBFF36F8F00BF00BFD3
:10135000FEE70D48006800F4E0600C490968884227
:1013600001D8012000E0002050B900BF502080F3D8
:101370001188BFF34F8FBFF36F8F00BF00BFFEE731
:1013800070BD0000780000200CED00E07C00002023
:10139000024600200BE0084B53F8303033B9064BBF
:1013A00043F8301003EBC0035A6002E0401C0828E9
:1013B000F1D300BF704700008C0000202DE9F04100
:1013C00005460E4617462C46FFF700FF94F94400E9
:1013D000401C10B9002084F8440094F94500401CDA
:1013E00010B9002084F84500FFF71AFFA06B28B958
:1013F0003A46314604F1240000F0C6F82046FFF7D3
:101400005EFDBDE8F081000070B504460025D4B152
:101410001248006808B9012000E0002050B900BF60
:10142000502080F31188BFF34F8FBFF36F8F00BF41
:1014300000BFFEE700F016F900212046FFF794F800
:1014400000F0B2FE05463DB94FF0805004490860F7
:10145000BFF34F8FBFF36F8F70BD00003C000020C3
:1014600004ED00E070B50546FFF7B0FE15B927485A
:10147000006800E028460446201DFFF75DFEA06AD4
:1014800018B104F11800FFF757FE21480068401C0E
:101490001F4908601D480068844209D1211D1D486C
:1014A000FFF788FE1C480068401C1B49086009E0E3
:1014B0001A480068401E194908602046FFF798F94D
:1014C000FFF750FCFFF7ACFE15480068E8B10F4885
:1014D0000068844219D11348006808B9012000E06F
:1014E000002050B900BF502080F31188BFF34F8F08
:1014F000BFF36F8F00BF00BFFEE74FF080500A4977
:101500000860BFF34F8FBFF36F8F70BD00000020E6
:101510002C000020680500200C0000201000002096
:101520001C0000203C00002004ED00E00349096895
:1015300001600349096841607047000028000020ED
:101540001400002001200149086070472400002099
:1015500070B504460D4654B900BF502080F3118881
:10156000BFF34F8FBFF36F8F00BF00BFFEE705488B
:10157000016818312046FFF703FE01212846FEF7D7
:10158000F3FF70BD0000002070B505460E461446FE
:1015900055B900BF502080F31188BFF34F8FBFF3C0
:1015A0006F8F00BF00BFFEE706480168183128466C
:1015B000FFF700FE0CB14FF0FF3621463046FEF734
:1015C000D3FF70BD000000201CB51E4800210B4653
:1015D0008022CDE900101CA11D4800F05FFC0446EC
:1015E000012C02D100F062FE0446012C15D100BF8F
:1015F000502080F31188BFF34F8FBFF36F8F00BF70
:101600004FF0FF30134908600120134908600020A3
:101610001249086000F076F810E0601C08B1012063
:1016200000E0002050B900BF502080F31188BFF3C4
:101630004F8FBFF36F8F00BF00BFFEE70848006801
:101640001CBD00003400002049444C45000000004F
:10165000A9080008300000201C0000201400002011
:101660003800002002480068401C014908607047AB
:101670003C0000201E48006818B101201D49086088
:1016800034E000201B4908601B4801680CE051B998
:1016900000BF502080F31188BFF34F8FBFF36F8FCF
:1016A00000BF00BFFEE7491E01EB8100134A52F85C
:1016B000200008B9012000E000200028E7D101EB5C
:1016C00081020E4B03EB820042685268426000F1D7
:1016D00008024368934202D14268526842604268FD
:1016E000D268074B1A600448016000BF70470000D1
:1016F0003C0000202400002018000020CC00002026
:10170000000000201CB5524800685249884201D0B0
:10171000012000E0002050B900BF502080F3118864
:10172000BFF34F8FBFF36F8F00BF00BFFEE7484886
:1017300000684849491E884201D0012000E000208D
:1017400050B900BF502080F31188BFF34F8FBFF313
:101750006F8F00BF00BFFEE73F4908460078019049
:10176000FF200A4610700846007800909DF800009F
:1017700000F0F0009DF80020904201D1012000E02F
:10178000002050B900BF502080F31188BFF34F8F65
:10179000BFF36F8F00BF00BFFEE79DF8000000F0B1
:1017A00050002E4A107007202D4A106009E02C4886
:1017B0000068401E2A4A10609DF800004006000E96
:1017C00000909DF8000000F080008028EFD02448B1
:1017D0000068C0F10700042801D1012000E00020CA
:1017E00050B900BF502080F31188BFF34F8FBFF373
:1017F0006F8F00BF00BFFEE7194800680002184A5B
:1018000010601046008800F4E0601060124A0198F1
:1018100010700F482030006840F470000C492031EF
:1018200008600846006840F070400860FFF768FDF7
:1018300000200C490860FEF7EFFC0B48006840F000
:10184000404009490860FEF7D3FC00201CBD0000A1
:1018500000ED00E071C20F4100E400E078000020DC
:101860007C0000207400002034EF00E010B500BFC1
:10187000502080F31188BFF34F8FBFF36F8F00BFED
:1018800000F052FB18B14FF080500449086000BFCF
:10189000002080F3118800BF10BD000004ED00E0BF
:1018A0002DE9F84306460F4690460EB1012000E0B0
:1018B000002050B900BF502080F31188BFF34F8F34
:1018C000BFF36F8F00BF00BFFEE706FB07F51FB138
:1018D000B5FBF7F0B04201D1012000E0002050B983
:1018E00000BF502080F31188BFF34F8FBFF36F8F7D
:1018F00000BF00BFFEE705F15000A84201D901205A
:1019000000E0002050B900BF502080F31188BFF3E1
:101910004F8FBFF36F8F00BF00BFFEE705F1500090
:10192000FFF70CFB04464CB1A14609F150094346B0
:101930004A46394630460094FEF7CAFF2046BDE8C5
:10194000F883000070B505460E462C4654B900BF1A
:10195000502080F31188BFF34F8FBFF36F8F00BF0C
:1019600000BFFEE7FFF732FCD4E90F12206801FB4D
:101970000200A0600020A06320686060E06B401E51
:10198000226C216800FB0211E160FF2084F8440012
:1019900084F845009EB9206908B9012000E00020C4
:1019A000A8B904F1100000F0B3FB80B14FF08050F3
:1019B00009490860BFF34F8FBFF36F8F07E004F151
:1019C0001000FFF7CDFB04F12400FFF7C9FBFFF780
:1019D00027FC012070BD000004ED00E02DE9FF436D
:1019E00083B0064688461D464FF00009344654B978
:1019F00000BF502080F31188BFF34F8FBFF36F8F6C
:101A000000BF00BFFEE7B8F1000F01D1206C08B99C
:101A1000012000E0002050B900BF502080F3118861
:101A2000BFF34F8FBFF36F8F00BF00BFFEE7022DE4
:101A300002D1E06B012801D1012000E0002050B963
:101A400000BF502080F31188BFF34F8FBFF36F8F1B
:101A500000BF00BFFEE700F051FA08B9059808B9C9
:101A6000012000E0002050B900BF502080F3118811
:101A7000BFF34F8FBFF36F8F00BF00BFFEE700BF04
:101A8000FFF7A4FBA06BE16B884201D3022D28D1A4
:101A90002A4641462046FEF76CFE0746606A08B9B2
:101AA000012000E0002068B904F1240000F030FBC0
:101AB00088B14FF0805032490860BFF34F8FBFF3B9
:101AC0006F8F08E03FB14FF080502D490860BFF3A1
:101AD0004F8FBFF36F8FFFF7A3FB012007B0BDE867
:101AE000F083059818B9FFF79BFB0020F6E7B9F1E2
:101AF000000F04D101A8FFF719FD4FF00109FFF70E
:101B00008FFBFFF7AFFDFFF761FB94F94400401C2A
:101B100010B9002084F8440094F94500401C10B925
:101B2000002084F84500FFF77BFB05A901A800F021
:101B30006DF9F0B92046FEF7E0FFA0B104F1100006
:101B40000599FFF705FD2046FFF7B9F900F02CFBDA
:101B5000002895D14FF0805009490860BFF34F8F9E
:101B6000BFF36F8F8CE72046FFF7A9F900F01CFB4D
:101B700086E72046FFF7A3F900F016FB0020ADE74B
:101B800004ED00E02DE9F84F07468B4690461E46CF
:101B90003C4654B900BF502080F31188BFF34F8FEB
:101BA000BFF36F8F00BF00BFFEE7BBF1000F01D195
:101BB000206C08B9012000E0002050B900BF50207F
:101BC00080F31188BFF34F8FBFF36F8F00BF00BF4B
:101BD000FEE7022E02D1E06B012801D1012000E0D6
:101BE000002050B900BF502080F31188BFF34F8F01
:101BF000BFF36F8F00BF00BFFEE7FFF78DFB00BF95
:101C00005021EFF3118081F31188BFF34F8FBFF3A1
:101C10006F8F00BF0546A06BE16B884201D3022E97
:101C200037D194F945A0A06B009032465946204622
:101C3000FEF79FFD0AF1010088B9606A08B901202A
:101C400000E0002050B904F1240000F061FA28B14E
:101C5000B8F1000F02D00120C8F8000016E0BAF178
:101C60007F0F01D0012000E0002050B900BF5020BC
:101C700080F31188BFF34F8FBFF36F8F00BF00BF9A
:101C8000FEE70AF1010040B284F845004FF0010977
:101C900001E04FF0000900BF85F3118800BF4846FE
:101CA000BDE8F88F2DE9F74183B005460E464FF0A9
:101CB00000082C4654B900BF502080F31188BFF3B0
:101CC0004F8FBFF36F8F00BF00BFFEE70EB9206CD0
:101CD00008B9012000E0002050B900BF502080F377
:101CE0001188BFF34F8FBFF36F8F00BF00BFFEE7B8
:101CF00000F004F908B9059808B9012000E00020B7
:101D000050B900BF502080F31188BFF34F8FBFF34D
:101D10006F8F00BF00BFFEE700BFFFF757FAA76B4A
:101D2000F7B131462046FEF70FFD781EA06320690B
:101D300008B9012000E0002060B904F1100000F0B3
:101D4000E7F938B14FF080502F490860BFF34F8F4B
:101D5000BFF36F8FFFF764FA012006B0BDE8F08192
:101D6000059818B9FFF75CFA0020F6E7B8F1000F04
:101D700004D101A8FFF7DAFB4FF00108FFF750FA92
:101D8000FFF770FCFFF722FA94F94400401C10B9E9
:101D9000002084F8440094F94500401C10B900204C
:101DA00084F84500FFF73CFA05A901A800F02EF8D9
:101DB000F0B92046FEF794FEA0B104F12400059985
:101DC000FFF7C6FB2046FFF77AF800F0EDF9002890
:101DD000A3D14FF080500C490860BFF34F8FBFF381
:101DE0006F8F9AE72046FFF76AF800F0DDF994E775
:101DF0002046FFF764F800F0D7F92046FEF770FEA2
:101E000000288AD00020A8E704ED00E070B5054660
:101E10000C4655B900BF502080F31188BFF34F8F97
:101E2000BFF36F8F00BF00BFFEE754B900BF502063
:101E300080F31188BFF34F8FBFF36F8F00BF00BFD8
:101E4000FEE7FFF7C3F9134802686868131A2068B1
:101E5000401C08B9002619E00F4928680968884223
:101E600006D06868904203D80126002020600DE06B
:101E70002068984207D92068C01A20602846FFF7DA
:101E800055FB002602E0002020600126FFF7C8F97C
:101E9000304670BD14000020280000202DE9FF4FBF
:101EA00085B0804689461746DDE912ABB800FFF7DA
:101EB00045F8064656B16C20FFF740F804460CB1D1
:101EC000266304E03046FFF7C9F900E000247CB146
:101ED0000020CDE900ABCDE902403A4649464046F4
:101EE000089BFEF70AFD2046FEF77CFB012501E07A
:101EF0004FF0FF35284609B0BDE8F08F0549096865
:101F000009B9012005E00449096809B9022000E087
:101F1000002070471C0000203C0000200149086898
:101F200070470000140000202DE9F0414FF0000838
:101F30004348006800287BD142480068451C41485E
:101F4000056015BB40480068006808B9012000E042
:101F5000002050B900BF502080F31188BFF34F8F8D
:101F6000BFF36F8F00BF00BFFEE7374807683748F1
:101F70000068354908603548076035480068401CEE
:101F800033490860FEF7EEFE00BF32480068854224
:101F90003BD300BF2C480068006808B9012000E06E
:101FA000002020B14FF0FF302A4908602CE026487D
:101FB0000068C068C4686668B54202D225480660F9
:101FC00022E0201DFFF7B8F8A06A18B104F118004C
:101FD000FFF7B2F82049E06A0968884202D91E4931
:101FE000E06A0860E16A01EB81011C4A02EB8100B2
:101FF000211DFFF7DFF81A49E06A0968C96A8842BB
:10200000C8D34FF00108C5E700BF15480068C06A93
:1020100000EB8000114951F82000012801D94FF050
:1020200001081048006808B14FF0010805E0FFE71B
:102030000D480068401C0C4908604046BDE8F0812E
:102040003C000020140000200400002008000020B4
:10205000280000203000002018000020CC000020C4
:1020600000000020240000202000002070B505465C
:102070002C460026002D43D022480068844201D11E
:10208000012000E0002050B900BF502080F31188EB
:10209000BFF34F8FBFF36F8F00BF00BFFEE7206E0F
:1020A00050B900BF502080F31188BFF34F8FBFF3AA
:1020B0006F8F00BF00BFFEE7206E401E2066E16DFF
:1020C000E06A88421CD0206ED0B9201DFFF734F89A
:1020D000E06DE062E06AC0F13800A0610A49E06AA0
:1020E0000968884202D90849E06A0860E16A01EBA0
:1020F0008101064A02EB8100211DFFF75BF80126F2
:10210000304670BD0000002018000020CC000020E8
:1021100070B50646F068C46854B900BF502080F31B
:102120001188BFF34F8FBFF36F8F00BF00BFFEE773
:1021300004F11800FFF700F815480068A0B9201D49
:10214000FEF7FAFF1349E06A0968884202D911498B
:10215000E06A0860E16A01EB81010F4A02EB81004D
:10216000211DFFF727F804E004F118010B48FFF7E1
:1021700021F80B49E06A0968C96A884204D9012537
:1021800001200849086000E00025284670BD0000D5
:102190003C00002018000020CC0000205405002046
:1021A000000000202400002070B5002400263648DE
:1021B000006850B900BF502080F31188BFF34F8FE3
:1021C000BFF36F8F00BF00BFFEE7FEF7FFFF2E4893
:1021D0000068401E2C4908600846006800284ED15F
:1021E0002A48006800284AD023E02948C068C4680B
:1021F00004F11800FEF7A0FF201DFEF79DFF254902
:10220000E06A0968884202D92249E06A0860E16A06
:1022100001EB8101204A02EB8100211DFEF7CAFF7C
:102220001E49E06A0968C96A884202D301201C4934
:1022300008601748006808B9012000E00020002865
:10224000D3D00CB1FEF78EFD1648056865B100BF0E
:10225000FFF76AFE10B10120114908606D1E002DC4
:10226000F6D100200F4908600D48006838B10126FA
:1022700030070D490860BFF34F8FBFF36F8FFEF734
:10228000CFFF304670BD00003C0000201000002051
:102290005405002018000020CC0000200000002081
:1022A000240000202000002004ED00E01CB50024E4
:1022B000FEF7F4F90D48006850B10D4802210023E3
:1022C000CA01CDE900100BA10C48FFF7E7FD044659
:1022D00054B900BF502080F31188BFF34F8FBFF374
:1022E0006F8F00BF00BFFEE720461CBD48000020E6
:1022F0004C000020546D722053766300A50E000838
:102300002DE9FF4704460D4616461F46DDF830808E
:102310004FF0000954B900BF502080F31188BFF37B
:102320004F8FBFF36F8F00BF00BFFEE714480068F8
:1023300010B3009501960294062D15DAFFF7DEFD25
:10234000022808D10023424669460D480068FFF77D
:1023500045FB814610E000231A466946084800689C
:10236000FFF73CFB814607E000233A4669460448F4
:102370000068FFF707FC8146484604B0BDE8F087D7
:1023800048000020A4230008000000208C0000006A
:1023900014050008302400088C0000202C450000A3
:1023A00024050008000000000000000000000000FC
:1023B000000000000000000000000000000000001D
:1023C000000000000000000000000000000000000D
:1023D00000000000000000000000000037000000C6
:1023E00000000000000000000000000000000000ED
:1023F00000000000000000000000000000000000DD
:1024000000000000000000000000000000000000CC
:102410000000000000000000AAAAAAAA0000000014
:1024200000000000000000000000000000000000AC
:04000005080002915C
:00000001FF
