:020000040800F2
:10000000C845002091020008250F00084D0E000889
:10001000210F0008C1030008FD0F000800000000C8
:10002000000000000000000000000000D1010008F6
:10003000C5030008000000002D020008290F000879
:10004000AB020008AB020008AB020008AB020008DC
:10005000AB020008AB020008AB020008AB020008CC
:10006000AB020008AB020008AB020008AB020008BC
:10007000AB020008AB020008AB020008AB020008AC
:10008000AB020008AB020008AB0200080000000051
:10009000000000000000000000000000AB020008AB
:1000A000AB020008AB020008AB020008AB0200087C
:1000B000AB020008AB020008AB020008AB0200086C
:1000C000AB020008AB020008AB020008AB0200085C
:1000D000AB020008AB020008AB0200080000000001
:1000E000AB020008AB020008AB02000800000000F1
:1000F000000000000000000000000000AB0200084B
:1001000000000000AB020008AB020008AB020008D0
:1001100000000000000000000000000000000000DF
:10012000AB020008AB020008AB020008AB020008FB
:10013000AB0200080000000000000000000000000A
:10014000000000000000000000000000AB020008FA
:10015000AB020008AB020008AB020008AB020008CB
:10016000AB020008AB020008000000000000000025
:10017000000000000000000000000000000000007F
:1001800000000000AB0200080000000000000000BA
:10019000AB020008AB020008DFF810D000F0FEF858
:1001A0000048004759100008AFF30080C845002000
:1001B000344B19680868B0E8F04F80F30988BFF342
:1001C0006F8F4FF0000080F311887047000000002F
:1001D0002C4B19680868B0E8F04F80F30988BFF32A
:1001E0006F8F4FF0000080F311887047000000000F
:1001F00008480068006880F308884FF0000080F32A
:10020000148862B661B6BFF34F8FBFF36F8F00DF04
:1002100000BF00BF08ED00E0DFF80C00016841F40A
:1002200070010160704700BF88ED00E0EFF30980C6
:10023000BFF36F8F134B1A681EF0100F08BF20ED2D
:10024000108A20E9F04F106009B44FF0500080F39D
:100250001188BFF34F8FBFF36F8F01F0ABFF4FF0EB
:10026000000080F3118809BC19680868B0E8F04FF5
:100270001EF0100F08BFB0EC108A80F30988BFF39E
:100280006F8F70471C000020EFF30580704700005F
:100290000648804706480047FEE7FEE7FEE7FEE720
:1002A000FEE7FEE7FEE7FEE7FEE7FEE7E90F0008F0
:1002B000990100082DE9F05F0546002092469B4613
:1002C00088460646814640241BE02846414647466C
:1002D000224600F053F853465A46C01A914110D3B3
:1002E00011461846224600F03AF82D1A67EB01082D
:1002F0004F4622460120002100F031F817EB00099B
:100300004E41201EA4F10104DFDC484631462A4656
:100310004346BDE8F09F40EA01039B0703D009E094
:1003200008C9121F08C0042AFAD203E011F8013BE1
:1003300000F8013B521EF9D27047D2B201E000F83A
:10034000012B491EFBD270470022F6E710B5134679
:100350000A4604461946FFF7F0FF204610BD202A42
:1003600004DB203A00FA02F1002070479140C2F10C
:10037000200320FA03F3194390407047202A04DB3E
:10038000203A21FA02F00021704721FA02F3D0400E
:10039000C2F120029140084319467047064C074DB0
:1003A00006E0E06840F0010394E807009847103445
:1003B000AC42F6D3FFF7F4FEDC2E0008FC2E00085A
:1003C00000BFFEE7704772B600BFFEE7F8B5024611
:1003D0000B460025002400200021CFE0012606FA6C
:1003E00001F51E6806EA0504AC4275D11E7906F0D7
:1003F0000306012E04D01E7906F00306022E13D147
:1004000090684F000326BE40B0434F00DE68BE40F8
:1004100030439060506801268E40B0431E79C6F389
:1004200000168E40304350601E7906F00306032EFE
:1004300009D0D0684F000326BE40B0434F009E68ED
:10044000BE403043D0601E7906F00306022E13D161
:10045000CF0802F1200656F827004E07F70E0F26A8
:10046000BE40B0434F07FF0E1E69BE403043CF0869
:1004700002F1200646F8270010684F000326BE4010
:10048000B0431E7906F003064F00BE4030431060B3
:100490005E6806F08056B6F1805F6ED100BF002620
:1004A0000096384E366846F48046364F3E603E46EB
:1004B000366806F48046009600BF00BF324E8F08B3
:1004C00056F827008E07370F0F26BE40B0432F4E39
:1004D000B24202D1002615E04FE02D4EB24201D1CA
:1004E00001260FE02B4EB24201D102260AE02A4E2D
:1004F000B24201D1032605E0284EB24201D10426C2
:1005000000E007268F073F0FBE4030431E4E8F0886
:1005100046F82700224E3068A0435E6806F4803615
:10052000B6F5803F00D120431D4E3060361D306847
:10053000A0435E6806F40036B6F5003F00D12043C4
:10054000174E361D3060361D3068A0435E6806F4D5
:100550008016B6F5801F00D12043114E083630605A
:10056000361D3068A0435E6806F40016B6F5001F1D
:1005700000D120430A4E0C363060491C1029FFF48C
:100580002DAFF8BD44380240083801400000024059
:100590000004024000080240000C0240001002402B
:1005A000003C01400AB1816101E00B0483617047A6
:1005B00001480068704700000C00002003480068F4
:1005C0000349097808440149086070470C0000207D
:1005D0001400002010B50D48006840F400700B496D
:1005E00008600846006840F48060086008460068BB
:1005F00040F480700860032000F092F8002000F0C2
:1006000007F800F02BF8002010BD0000003C02406D
:1006100070B504460E4800784FF47A71B1FBF0F0E3
:100620000C490968B1FBF0F5284600F0F5FB08B16C
:10063000012070BD102C07D200222146501E00F070
:1006400031F80548046001E00120F2E70020F0E7FE
:1006500014000020180000201000002008B500BF82
:10066000002000900E48006840F480400C4908606B
:100670000846006800F48040009000BF00BF00BF43
:1006800000200090081F006840F08050091F08609B
:100690000846006800F08050009000BF00BF08BD11
:1006A000443802402DE9F05F80460D46164600278B
:1006B00000F0A6FC074639462A46334601F00700FB
:1006C000C0F1070ABAF1040F02D94FF0040A01E0A1
:1006D000C0F1070AD14600F1040ABAF1070F02D2AD
:1006E0004FF0000A01E0A0F1030AD4464FF0010ADE
:1006F0000AFA09FAAAF1010A0AEA020A0AFA0CFA43
:100700004FF0010B0BFA0CFBABF1010B0BEA030BE7
:100710004AEA0B042146404600F07AFCBDE8F09F0F
:1007200000BF00F00702064B19684FF6FF0319409F
:10073000044B0B4343EA0221014B196000BF704791
:100740000CED00E00000FA0570B504460D460CB94A
:10075000012070BD5848006800F00700A84209D287
:1007600055490D700846006800F00700A84201D006
:100770000120EEE7207800F0020002281DD1207849
:1007800000F00400042805D14C48006840F4E05013
:100790004A490860207800F00800082805D1474839
:1007A000006840F46040454908604448006820F013
:1007B000F000A168084341490860207800F001007A
:1007C000A8B36068012807D13C4808380068C0F326
:1007D0004040B8B90120BCE76068022802D06068D8
:1007E000032807D1354808380068C0F3406048B98D
:1007F0000120AEE7314808380068C0F3400008B96E
:100800000120A6E72D48006820F003006168084336
:100810002A490860FFF7CCFE064609E0FFF7C8FE4C
:10082000801B41F28831884202D9032091E707E01A
:100830002248006800F00C006168B0EB810FEDD138
:100840001D48006800F00700A84209D91A490D7038
:100850000846006800F00700A84201D0012078E7B0
:10086000207800F00400042807D11448006820F420
:10087000E050E168084311490860207800F0080062
:10088000082808D10D48006820F46040216940EA3A
:10089000C1000A49086000F019F808490968C1F365
:1008A0000311074A515CC8400649086006480068C1
:1008B000FFF7AEFE00204CE7003C02400838024043
:1008C000C42E000818000020100000202DE9F04779
:1008D000002400250026A1462548006800F00C00F1
:1008E00020B1042805D008283AD105E0DFF884902B
:1008F00039E0DFF8849036E01D48001F006800F002
:100900003F041B48001F006800F4800078B11A48BB
:100910001749091F0968C1F38811A0FB017001463E
:10092000224600233846FFF7C5FC05460EE0114875
:100930000F49091F0968C1F38811A0FB0170014626
:10094000224600233846FFF7B5FC05460848001F3D
:100950000068C0F30140401C4600B5FBF6F902E018
:10096000DFF8109000BF00BF4846BDE8F0870000E8
:10097000083802400024F40040787D01F8B50446B0
:100980000CB90120F8BD207800F00100002874D0D7
:10099000F948006800F00C0004280DD0F648006803
:1009A00000F00C00082813D1F348001F006800F481
:1009B0008000B0F5800F0BD1EF4808380068C0F315
:1009C0004040002859D06068002856D10120D9E75E
:1009D00000BF6068B0F5803F08D1E748083800687C
:1009E00040F48030E449083908601EE06068B0F5E2
:1009F000A02F0DD1E0480838006840F48020DE497F
:100A0000083908600846006840F4803008600CE04F
:100A1000D9480838006820F48030D7490839086080
:100A20000846006820F48020086000BF606890B12C
:100A3000FFF7BEFD054606E0FFF7BAFD401B642840
:100A400001D903209EE7CC4808380068C0F3404035
:100A50000028F1D011E0FFF7ABFD054606E0FFF7F7
:100A6000A7FD401B642801D903208BE7C248083842
:100A70000068C0F340400028F1D1207800F0020067
:100A800002285FD1BC48006800F00C0058B1BA4899
:100A9000006800F00C0008281CD1B748001F00684F
:100AA00000F48000B0B9B44808380068C0F34000D2
:100AB00020B1E068012801D0012063E7AE48083882
:100AC000006820F0F800216940EAC100AA4908390D
:100AD000086037E0E06800B30120A8490860FFF72C
:100AE00067FD054606E0FFF763FD401B022801D9BC
:100AF000032047E7A04808380068C0F340000028FA
:100B0000F1D09D480838006820F0F800216940EADB
:100B1000C10099490839086014E00020974908602D
:100B2000FFF746FD054606E0FFF742FD401B0228A1
:100B300001D9032026E7904808380068C0F3400038
:100B40000028F1D1207800F0080008282CD1606935
:100B5000A8B101208A490860FFF72AFD054606E092
:100B6000FFF726FD401B022801D903200AE782482F
:100B70006C300068C0F340000028F1D014E0002081
:100B80007F490860FFF714FD054606E0FFF710FDFA
:100B9000401B022801D90320F4E677486C30006836
:100BA000C0F340000028F1D1207800F004000428B0
:100BB00070D1002770483830006800F0805090B93C
:100BC00000BF002000906C483830006840F0805032
:100BD0006949383108600846006800F0805000908C
:100BE00000BF00BF01276748006800F48070B0B9FB
:100BF0006448006840F4807062490860FFF7D8FCE0
:100C0000054606E0FFF7D4FC401B022801D903206B
:100C1000B8E65C48006800F480700028F2D000BF9D
:100C2000A068012808D154486830006840F00100ED
:100C30005149683108601DE0A06805280DD14E4873
:100C40006830006840F004004B496831086008468D
:100C5000006840F0010008600CE047486830006818
:100C600020F001004449683108600846006820F01F
:100C70000400086000BFA068A8B1FFF799FC054612
:100C800009E0FFF795FC401B41F28831884202D908
:100C9000032077E626E0384868300068C0F340005B
:100CA0000028EED013E0FFF783FC054608E0FFF7CD
:100CB0007FFC401B41F28831884201D9032061E664
:100CC0002D4868300068C0F340000028EFD1012FA4
:100CD00007D129483830006820F080502649383143
:100CE000086000BFA069002845D02348006800F0D4
:100CF0000C0008285DD0A069022845D100201F49BA
:100D00000866FFF755FC054606E0FFF751FC401B5F
:100D1000022801D9032035E6174808380068C0F3D7
:100D200040600028F1D1D4E907010843616A40EA34
:100D300081110122A06AC2EB500041EA00412C203F
:100D4000005D41EA00600C49091F086001200B4961
:100D50000866FFF72DFC054606E0FFF729FC401B5F
:100D6000022801D903200DE6034808380068C0F3C3
:100D700040600028F1D049E00838024000004742B6
:100D8000800E474200700040002021490866FFF7AE
:100D90000FFC054606E0FFF70BFC401B022801D9BB
:100DA0000320EFE51B480068C0F340600028F2D143
:100DB0002CE0A069012800D1E4E51648001D066872
:100DC000A069012820D006F48001E06981421BD18E
:100DD00006F03F01206A814216D147F6C0703040CC
:100DE000616AB0EB811F0FD106F440310122A06A85
:100DF000C2EB5000B1EB004F06D106F070612C2021
:100E0000005DB1EB006F01D00120BBE50020B9E52A
:100E1000000047420038024070B504462546681E6F
:100E2000B0F1807F01D301200FE0681E4FF0E02178
:100E300048610F214FF0FF3000F0EAF800204FF03A
:100E4000E021886107200861002070BD00BFFEE737
:100E500008E0012251030448FFF7A4FB4FF4966019
:100E600001F072F8F5E700000008024009E00022F6
:100E70004FF400510348FFF795FB4FF4FA7001F06F
:100E800063F8F4E70008024000B587B0142102A817
:100E9000FFF75AFA00BF002001901F48006840F099
:100EA00004001D4908600846006800F00400019035
:100EB00000BF00BF00BF002001900846006840F05E
:100EC000800008600846006800F08000019000BFC4
:100ED00000BF00BF002001900846006840F00100FC
:100EE00008600846006800F00100019000BF00BFE4
:100EF00000224FF400510948FFF754FB4FF4005013
:100F000002900120039000200490059002A903485C
:100F1000FFF75CFA07B000BD30380240000802401D
:100F200000BFFEE700BFFEE710B501F03FFAFFF794
:100F300045FB10BD00B593B0302107A8FFF704FAB8
:100F4000142102A8FFF700FA00BF002001902448F6
:100F5000006840F08050224908600846006800F0B0
:100F60008050019000BF00BF00BF002001901D48CD
:100F7000006840F440401B4908600846006800F4DF
:100F80004040019000BF00BF0220079001200A905E
:100F900010200B9002200D9000210E9108210F913E
:100FA00064211091022111910421129107A8FFF7E9
:100FB000E5FC08B1FFF707FA0F200290022003902A
:100FC000002004904FF480500590002006900321EB
:100FD00002A8FFF7B9FB08B1FFF7F5F913B000BDA0
:100FE00040380240007000400348006840F4700040
:100FF000014908607047000088ED00E000BFFEE78F
:1010000002480068C0F30220704700000CED00E0C9
:1010100010B5002804DB0A07130E054A135406E036
:101020000A07140E034A00F00F031B1FD45410BD0F
:1010300000E400E018ED00E002E008C8121F08C15B
:10104000002AFAD170477047002001E001C1121F49
:10105000002AFBD1704700001CB5FFF7BBFAFFF771
:1010600069FFFFF711FF0748012100238022CDE926
:10107000001005A1074801F0B1FC01F045F800BFE0
:10108000FEE700000000002073746172745F7461F9
:10109000736B0000051C00082DE9F04105460E4663
:1010A0001648076816480068001D00F0DDFD681C42
:1010B00038B936B112480168091D124800F012FE15
:1010C0001AE07C190E4800684460BC4207D20C4804
:1010D0000168091D0C48006800F0EAFD0CE00848B2
:1010E0000168091D0948006800F0E2FD0848006831
:1010F000844201D206480460BDE8F081300000203F
:101100001C0000208C05002024000020200000206E
:101110004C00002010B5044600F0F0FD24480068A3
:10112000401C234908602348006840B921480460F6
:101130000846006801280DD100F0D6F90AE01E48E3
:10114000006838B91B480068C06AE16A884201D863
:101150001848046019480068401C1849086008468F
:10116000006860651649E06A0968884202D9144936
:10117000E06A0860E16A01EB8101124A02EB81003A
:10118000211D00F0AFFD00F0E3FD0B48006868B1E1
:1011900008480068C06AE16A884207D24FF0805070
:1011A00009490860BFF34F8FBFF36F8F10BD000078
:1011B0002C0000201C0000203800002048000020E7
:1011C00034000020DC00002004ED00E010B500F049
:1011D00095FD10480068D0B90F4800F059FD0F4840
:1011E00000F056FD0C480E4908600C480D49086097
:1011F000002210210A2001F0F3F806490860084691
:10120000006820B108A10348006800F061FE00F00A
:101210009FFD10BD64000020A0050020B405002043
:101220005C00002060000020546D7251000000003E
:1012300010B516E000F062FD0C48C068C468201DBF
:1012400000F012FD0A480068401E0949086009487C
:101250000068401E0749086000F07AFD204600F053
:101260005FF8044800680028E4D110BD780500202C
:101270002C0000202800002070B504460D46206C8C
:1012800070B1216CE0680144E160D4E90210884249
:1012900001D32168E1602846226CE168FFF73BF842
:1012A00070BD2DE9F04104460F4615464FF0000889
:1012B000A66B206C48B9206800282CD1A06801F0EA
:1012C00075FC80460020A06025E07DB93946226C7F
:1012D0006068FFF720F8216C606808446060D4E91A
:1012E0000101884217D32068606014E03946226CFF
:1012F000E068FFF710F8216CE068411AE1602168AE
:10130000E068884203D2216CA068411AE160022D96
:1013100001D106B1761E701CA0634046BDE8F08185
:1013200010B50446206B00F031FD204600F02EFD84
:1013300010BD00000146084A126812680AB901226D
:1013400000E000220A600A6822B9034A1268D268E3
:10135000106800E0002070475C00002030B54FF4BA
:101360007053174800F007042CB1C01D20F007008F
:10137000134C041B1B1B0246124C22600024114D0F
:101380006C60D018083820F007000F4C2060002453
:101390000D4D2D686C600C4D2D682C601146441A63
:1013A0004C60094C24680C60084D4C682C60084D5A
:1013B0004C682C604FF00044064D2C6030BD00009E
:1013C000C80500207C000020840000208C00002044
:1013D000880000209800002000BFFFF729FF064882
:1013E00000680128F9D94FF0805004490860BFF324
:1013F0004F8FBFF36F8FF0E7DC00002004ED00E0BB
:101400002DE9F04106460D4617469846069C0DB953
:10141000246000E02760E66325640121204601F096
:1014200031F884F84C80BDE8F0812DE9F05F824608
:101430000E4690469B460A9F0C9C4FEA8801A522C7
:10144000206BFEF77AFFA8F10100216B01EB800908
:1014500029F0070909F0070008B9012000E0002081
:1014600050B900BF502080F31188BFF34F8FBFF3F6
:101470006F8F00BF00BFFEE786B1002507E0715DFA
:1014800004F134004155705D00B902E06D1C202D5F
:10149000F5D300BF00215320015502E0002084F85D
:1014A0003400382F00D33727E762E7650020206635
:1014B000201D00F0FAFB04F1180000F0F6FB246197
:1014C000C7F13800A06164620020606684F868009B
:1014D0005A465146484600F07FFB20600B9808B101
:1014E0000B980460BDE8F09F10B5002407E004EB02
:1014F00084010F4A02EB810000F0CAFB641C382C07
:10150000F5D30C4800F0C4FB0B4800F0C1FB0B48BE
:1015100000F0BEFB0A4800F0BBFB0A4800F0B8FB35
:1015200004480949086004480849086010BD0000E3
:10153000DC0000203C050020500500206405002050
:10154000780500208C0500202000002024000020C9
:1015500010B50146164800E0006803688B42FBD3D3
:101560000246436813448B4204D143684C682344C9
:10157000436001460A464B6813440468A34211D1F4
:101580000C4C03682468A34208D04B680468646864
:1015900023444B6003681B680B6005E0054B1B6828
:1015A0000B6001E003680B60884200D0016010BD51
:1015B0007C000020840000202DE9F04104460D4607
:1015C00016461F464FF0000865602461B5420CD8EE
:1015D000F01BA169884202D34FF0010811E0211DE0
:1015E0000948006800F064FB0BE0BE4204D2BD4233
:1015F00002D34FF0010804E0211D0448006800F008
:1016000057FB4046BDE8F081600000205C000020F0
:1016100070B5054600F072FBA86B08B9012400E024
:10162000002400F095FB204670BD70B5054600F023
:1016300065FBA86BE96B884201D1012400E000241E
:1016400000F086FB204670BDF8B505460F461A48E7
:101650000068C068C468201D00F006FB94F82800EC
:1016600000F00400E8B1A06941192B463A46204633
:10167000FFF7A2FFD8B1002003462A46014600909A
:10168000204601F0DDFB064656B900BF502080F32E
:101690001188BFF34F8FBFF36F8F00BF00BFFEE70E
:1016A00005E094F8280020F0010084F82800204686
:1016B000216A8847F8BD00005C000020F0B587B0C3
:1016C000A0E00398002811DA04AE56B900BF5020FC
:1016D00080F31188BFF34F8FBFF36F8F00BF00BF40
:1016E000FEE7D6E90020B168904700BF03980028C4
:1016F000E6DB059C606908B9012000E0002010B914
:10170000201D00F0B1FA02A800F0DCF805460398AD
:101710000A2875D2DFE800F0090507394163060899
:101720003A4200BF00BF00BF00BF94F8280040F05D
:10173000010084F828000498A269811803462A460B
:101740002046FFF739FFF8B12046216A884794F810
:10175000280000F00400B8B1002000900498A169AE
:10176000421800231946204601F06AFB074657B984
:1017700000BF502080F31188BFF34F8FBFF36F8FEE
:1017800000BF00BFFEE700BF3BE000BF94F82800A9
:1017900020F0010084F8280033E000BF94F828000E
:1017A00040F0010084F828000498A061A06908B105
:1017B000012000E0002050B900BF502080F31188C4
:1017C000BFF34F8FBFF36F8F00BF00BFFEE7A0696D
:1017D00041192B462A462046FFF7EEFE11E094F809
:1017E000280000F0020018B9204600F0CFFA05E00A
:1017F00094F8280020F0010084F8280001E0FFE7B9
:1018000000BF00BF002203A90448006800F0EAFFFF
:1018100000287FF456AF07B0F0BD00006400002040
:10182000F8B505460C4600F0BDFC684600F04AF8E5
:101830000646009820BB44B9B54206D801F054FAD8
:1018400031462846FFF700FF1CE03CB10E48006817
:10185000006808B9012000E000200446A91B2246C8
:101860000A48006800F04AFB01F03EFA50B94FF018
:10187000805007490860BFF34F8FBFF36F8F01E0BF
:1018800001F032FAF8BD0000600000206400002082
:1018900004ED00E009480068006808B9012000E094
:1018A000002020B14FF0FF300549086005E00348F3
:1018B0000068C06800680249086070472000002086
:1018C0004C00002070B5044601F0C8F805460748F2
:1018D0000068854204D200F00BF80120206001E08E
:1018E0000020206001480560284670BD6C00002083
:1018F0002DE9F84334E025480068C06805682348AE
:101900000068C068C468201D00F0AEF92046216A56
:10191000884794F8280000F0040008B3A06946192D
:10192000AE4207D966602461211D1848006800F0A6
:10193000BFF915E0002003462A46014600902046E4
:1019400001F07EFA074657B900BF502080F3118896
:10195000BFF34F8FBFF36F8F00BF00BFFEE700BF25
:101960000A480068006808B9012000E0002000284B
:10197000C1D00648D0F800800548006803490860D7
:101980000348C0F80080BDE8F88300005C00002038
:10199000600000200E480068401C08B9012000E0EB
:1019A000002050B900BF502080F31188BFF34F8F43
:1019B000BFF36F8F00BF00BFFEE700BF502080F372
:1019C0001188BFF34F8FBFF36F8F00BF00BFFEE7DB
:1019D0007000002008B500BF6846FFF7ABFC044666
:1019E00020460099FFF71CFFFFF768FEF4E770B58B
:1019F000044600F083F994F9455010E0606A08B994
:101A0000012000E0002038B904F1240001F020F9A1
:101A100018B100F037FB00E003E0681E45B2002D6E
:101A2000ECDC00BFFF2084F8450000F091F900F0E5
:101A300065F994F9445010E0206908B9012000E0EC
:101A4000002048B904F1100001F002F908B100F0DB
:101A500019FB681E45B200E001E0002DECDC00BF80
:101A6000FF2084F8440000F073F970BD2DE9F041C7
:101A700004464FF0000800F095FB5148006808B993
:101A8000FFF76CFC4F480068204000287ED13CB333
:101A900004F10800A04223D9083404F0070000B381
:101AA00004F00700C0F108002044A04216D904F059
:101AB0000700C0F10800044404F0070008B9012041
:101AC00000E0002068B900BF502080F31188BFF308
:101AD0004F8FBFF36F8F00BF00BFFEE7002400E011
:101AE0000024002C54D038480068844250D8374E27
:101AF0003046056801E02E462D686868A04202D293
:101B000028680028F7D12E480068854240D0306808
:101B100000F10808286830606868001B102819D98F
:101B20002F1907F0070008B9012000E0002050B984
:101B300000BF502080F31188BFF34F8FBFF36F8F2A
:101B400000BF00BFFEE76868001B78606C60384625
:101B5000FFF7FEFC1C4968680968081A1A49086002
:101B6000084600681A490968884203D21648006886
:101B700017490860134968680968084368600020CD
:101B8000286014480068401C124900E000E008602A
:101B900001F0AAF808F0070008B9012000E00020D1
:101BA00050B900BF502080F31188BFF34F8FBFF3AF
:101BB0006F8F00BF00BFFEE74046BDE8F081000028
:101BC0008400002098000020880000207C00002075
:101BD0008C00002090000020001F4FF080730360F5
:101BE000001F21F001030360001F054B0360143840
:101BF0000260001F6FF0020303602038704700008E
:101C0000951900081CB504460C48022100238022C7
:101C1000CDE900100AA10D4800F0E0FE0C480321B8
:101C200000238022CDE900100AA10D4800F0D6FE65
:101C30000C48006800F0B6F91CBD0000040000204C
:101C40004C45444F4E5F7461736B00006D0E00088D
:101C5000080000204C45444F46465F7461736B009A
:101C6000510E00080000002001460A69D1E9013048
:101C70009860D1E9010358605068884201D18868B2
:101C80005060002008611068401E106010687047A6
:101C900000F1080141604FF0FF31816000F108015F
:101CA000C16001610021016070470021016170473E
:101CB00010B502460B685C1C0CB9106907E002F114
:101CC000080000E04068446824689C42FAD94468EF
:101CD0004C604C68A160886041600A611468641CB3
:101CE000146010BD42684A6093688B6093685960C5
:101CF0009160086103685B1C0360704700BF50205F
:101D000080F31188BFF34F8FBFF36F8F00BF0E4872
:101D10000068401C0C49086008460068012812D180
:101D20000A480068C0B208B9012000E0002050B99C
:101D300000BF502080F31188BFF34F8FBFF36F8F28
:101D400000BF00BFFEE770477000002004ED00E018
:101D50000D48006850B900BF502080F31188BFF3D0
:101D60004F8FBFF36F8F00BF00BFFEE706480068CC
:101D7000401E054908600846006820B9002080F32D
:101D8000118800BF00BF70477000002070B5064684
:101D90003546002E44D0083D2C462249606809682B
:101DA000084008B1012000E0002050B900BF5020D9
:101DB00080F31188BFF34F8FBFF36F8F00BF00BF59
:101DC000FEE7206808B9012000E0002050B900BFFC
:101DD000502080F31188BFF34F8FBFF36F8F00BF88
:101DE00000BFFEE70F49606809680840C0B120687D
:101DF000B0B90C49606809688843606000F0D2F9A6
:101E00000949606809680844074908602046FFF7E7
:101E10009FFB06480068401C0449086000F064FF0E
:101E200070BD000098000020880000209400002071
:101E300000204FF0E02108618861064800684FF4F7
:101E40007A71B0FBF1F0401E4FF0E02148610720AD
:101E5000086170471800002070B5FEF715FA0446B7
:101E6000102C16D304F1E02090F8F05315480078B8
:101E7000854201DB012000E0002050B900BF502066
:101E800080F31188BFF34F8FBFF36F8F00BF00BF88
:101E9000FEE70D48006800F4E0600C4909688842DC
:101EA00001D8012000E0002050B900BF502080F38D
:101EB0001188BFF34F8FBFF36F8F00BF00BFFEE7E6
:101EC00070BD0000740000200CED00E078000020E0
:101ED000024600200BE0084B53F8303033B9064B74
:101EE00043F8301003EBC0035A6002E0401C08289E
:101EF000F1D300BF704700009C0000202DE9F041A5
:101F000005460E4617462C46FFF7F8FE94F94400A6
:101F1000401C10B9002084F8440094F94500401C8E
:101F200010B9002084F84500FFF712FFA06B28B914
:101F30003A46314604F1240000F0C6F82046FFF787
:101F400056FDBDE8F081000070B504460025D4B10F
:101F50001248006808B9012000E0002050B900BF15
:101F6000502080F31188BFF34F8FBFF36F8F00BFF6
:101F700000BFFEE700F016F900212046FFF78CF8BD
:101F800000F0B2FE05463DB94FF0805004490860AC
:101F9000BFF34F8FBFF36F8F70BD0000580000205C
:101FA00004ED00E070B50546FFF7A8FE15B9274817
:101FB000006800E028460446201DFFF755FEA06A91
:101FC00018B104F11800FFF74FFE21480068401CCB
:101FD0001F4908601D480068844209D1211D1D4821
:101FE000FFF780FE1C480068401C1B49086009E0A0
:101FF0001A480068401E194908602046FFF790F90A
:10200000FFF748FCFFF7A4FE15480068E8B10F4849
:102010000068844219D11348006808B9012000E023
:10202000002050B900BF502080F31188BFF34F8FBC
:10203000BFF36F8F00BF00BFFEE74FF080500A492B
:102040000860BFF34F8FBFF36F8F70BD1C0000207F
:102050004800002078050020280000202C000020E7
:10206000380000205800002004ED00E00349096812
:102070000160034909684160704700004400002086
:102080003000002001200149086070474000002016
:1020900070B504460D4654B900BF502080F3118836
:1020A000BFF34F8FBFF36F8F00BF00BFFEE7054840
:1020B000016818312046FFF7FBFD01212846FEF795
:1020C000EBFF70BD1C00002070B505460E4614469F
:1020D00055B900BF502080F31188BFF34F8FBFF375
:1020E0006F8F00BF00BFFEE7064801681831284621
:1020F000FFF7F8FD0CB14FF0FF3621463046FEF7F2
:10210000CBFF70BD1C0000201CB51E4800210B46F3
:102110008022CDE900101CA11D4800F05FFC0446A0
:10212000012C02D100F062FE0446012C15D100BF43
:10213000502080F31188BFF34F8FBFF36F8F00BF24
:102140004FF0FF3013490860012013490860002058
:102150001249086000F076F810E0601C08B1012018
:1021600000E0002050B900BF502080F31188BFF379
:102170004F8FBFF36F8F00BF00BFFEE708480068B6
:102180001CBD00005000002049444C4500000000E8
:10219000D91300084C000020380000203000002037
:1021A0005400002002480068401C01490860704744
:1021B000580000201E48006818B101201D49086021
:1021C00034E000201B4908601B4801680CE051B94D
:1021D00000BF502080F31188BFF34F8FBFF36F8F84
:1021E00000BF00BFFEE7491E01EB8100134A52F811
:1021F000200008B9012000E000200028E7D101EB11
:1022000081020E4B03EB820042685268426000F18B
:1022100008024368934202D14268526842604268B1
:10222000D268074B1A600448016000BF7047000085
:10223000580000204000002034000020DC00002076
:102240001C0000201CB5524800685249884201D049
:10225000012000E0002050B900BF502080F3118819
:10226000BFF34F8FBFF36F8F00BF00BFFEE748483B
:1022700000684849491E884201D0012000E0002042
:1022800050B900BF502080F31188BFF34F8FBFF3C8
:102290006F8F00BF00BFFEE73F49084600780190FE
:1022A000FF200A4610700846007800909DF8000054
:1022B00000F0F0009DF80020904201D1012000E0E4
:1022C000002050B900BF502080F31188BFF34F8F1A
:1022D000BFF36F8F00BF00BFFEE79DF8000000F066
:1022E00050002E4A107007202D4A106009E02C483B
:1022F0000068401E2A4A10609DF800004006000E4B
:1023000000909DF8000000F080008028EFD0244865
:102310000068C0F10700042801D1012000E000207E
:1023200050B900BF502080F31188BFF34F8FBFF327
:102330006F8F00BF00BFFEE7194800680002184A0F
:1023400010601046008800F4E0601060124A0198A6
:1023500010700F482030006840F470000C492031A4
:1023600008600846006840F070400860FFF760FDB4
:1023700000200C490860FDF74FFF0B48006840F053
:10238000404009490860FDF733FF00201CBD0000F4
:1023900000ED00E071C20F4100E400E07400002095
:1023A000780000207000002034EF00E010B500BF7E
:1023B000502080F31188BFF34F8FBFF36F8F00BFA2
:1023C00000F052FB18B14FF080500449086000BF84
:1023D000002080F3118800BF10BD000004ED00E074
:1023E0002DE9F84306460F4690460EB1012000E065
:1023F000002050B900BF502080F31188BFF34F8FE9
:10240000BFF36F8F00BF00BFFEE706FB07F51FB1EC
:10241000B5FBF7F0B04201D1012000E0002050B937
:1024200000BF502080F31188BFF34F8FBFF36F8F31
:1024300000BF00BFFEE705F15000A84201D901200E
:1024400000E0002050B900BF502080F31188BFF396
:102450004F8FBFF36F8F00BF00BFFEE705F1500045
:10246000FFF704FB04464CB1A14609F1500943466D
:102470004A46394630460094FEF7C2FF2046BDE882
:10248000F883000070B505460E462C4654B900BFCF
:10249000502080F31188BFF34F8FBFF36F8F00BFC1
:1024A00000BFFEE7FFF72AFCD4E90F12206801FB0A
:1024B0000200A0600020A06320686060E06B401E06
:1024C000226C216800FB0211E160FF2084F84400C7
:1024D00084F845009EB9206908B9012000E0002079
:1024E000A8B904F1100000F0B3FB80B14FF08050A8
:1024F00009490860BFF34F8FBFF36F8F07E004F106
:102500001000FFF7C5FB04F12400FFF7C1FBFFF744
:102510001FFC012070BD000004ED00E02DE9FF4329
:1025200083B0064688461D464FF00009344654B92C
:1025300000BF502080F31188BFF34F8FBFF36F8F20
:1025400000BF00BFFEE7B8F1000F01D1206C08B951
:10255000012000E0002050B900BF502080F3118816
:10256000BFF34F8FBFF36F8F00BF00BFFEE7022D99
:1025700002D1E06B012801D1012000E0002050B918
:1025800000BF502080F31188BFF34F8FBFF36F8FD0
:1025900000BF00BFFEE700F051FA08B9059808B97E
:1025A000012000E0002050B900BF502080F31188C6
:1025B000BFF34F8FBFF36F8F00BF00BFFEE700BFB9
:1025C000FFF79CFBA06BE16B884201D3022D28D161
:1025D0002A4641462046FEF764FE0746606A08B96F
:1025E000012000E0002068B904F1240000F030FB75
:1025F00088B14FF0805032490860BFF34F8FBFF36E
:102600006F8F08E03FB14FF080502D490860BFF355
:102610004F8FBFF36F8FFFF79BFB012007B0BDE823
:10262000F083059818B9FFF793FB0020F6E7B9F19E
:10263000000F04D101A8FFF719FD4FF00109FFF7C2
:1026400087FBFFF7AFFDFFF759FB94F94400401CEF
:1026500010B9002084F8440094F94500401C10B9DA
:10266000002084F84500FFF773FB05A901A800F0DE
:102670006DF9F0B92046FEF7D8FFA0B104F11000C3
:102680000599FFF705FD2046FFF7B1F900F02CFB97
:10269000002895D14FF0805009490860BFF34F8F53
:1026A000BFF36F8F8CE72046FFF7A1F900F01CFB0A
:1026B00086E72046FFF79BF900F016FB0020ADE708
:1026C00004ED00E02DE9F84F07468B4690461E4684
:1026D0003C4654B900BF502080F31188BFF34F8FA0
:1026E000BFF36F8F00BF00BFFEE7BBF1000F01D14A
:1026F000206C08B9012000E0002050B900BF502034
:1027000080F31188BFF34F8FBFF36F8F00BF00BFFF
:10271000FEE7022E02D1E06B012801D1012000E08A
:10272000002050B900BF502080F31188BFF34F8FB5
:10273000BFF36F8F00BF00BFFEE7FFF78DFB00BF49
:102740005021EFF3118081F31188BFF34F8FBFF356
:102750006F8F00BF0546A06BE16B884201D3022E4C
:1027600037D194F945A0A06B0090324659462046D7
:10277000FEF797FD0AF1010088B9606A08B90120E7
:1027800000E0002050B904F1240000F061FA28B103
:10279000B8F1000F02D00120C8F8000016E0BAF12D
:1027A0007F0F01D0012000E0002050B900BF502071
:1027B00080F31188BFF34F8FBFF36F8F00BF00BF4F
:1027C000FEE70AF1010040B284F845004FF001092C
:1027D00001E04FF0000900BF85F3118800BF4846B3
:1027E000BDE8F88F2DE9F74183B005460E464FF05E
:1027F00000082C4654B900BF502080F31188BFF365
:102800004F8FBFF36F8F00BF00BFFEE70EB9206C84
:1028100008B9012000E0002050B900BF502080F32B
:102820001188BFF34F8FBFF36F8F00BF00BFFEE76C
:1028300000F004F908B9059808B9012000E000206B
:1028400050B900BF502080F31188BFF34F8FBFF302
:102850006F8F00BF00BFFEE700BFFFF74FFAA76B07
:10286000F7B131462046FEF707FD781EA0632069C8
:1028700008B9012000E0002060B904F1100000F068
:10288000E7F938B14FF080502F490860BFF34F8F00
:10289000BFF36F8FFFF75CFA012006B0BDE8F0814F
:1028A000059818B9FFF754FA0020F6E7B8F1000FC1
:1028B00004D101A8FFF7DAFB4FF00108FFF748FA4F
:1028C000FFF770FCFFF71AFA94F94400401C10B9A6
:1028D000002084F8440094F94500401C10B9002001
:1028E00084F84500FFF734FA05A901A800F02EF896
:1028F000F0B92046FEF78CFEA0B104F12400059942
:10290000FFF7C6FB2046FFF772F800F0EDF900284C
:10291000A3D14FF080500C490860BFF34F8FBFF335
:102920006F8F9AE72046FFF762F800F0DDF994E731
:102930002046FFF75CF800F0D7F92046FEF768FE66
:1029400000288AD00020A8E704ED00E070B5054615
:102950000C4655B900BF502080F31188BFF34F8F4C
:10296000BFF36F8F00BF00BFFEE754B900BF502018
:1029700080F31188BFF34F8FBFF36F8F00BF00BF8D
:10298000FEE7FFF7BBF9134802686868131A20686E
:10299000401C08B9002619E00F49286809688842D8
:1029A00006D06868904203D80126002020600DE020
:1029B0002068984207D92068C01A20602846FFF78F
:1029C00055FB002602E0002020600126FFF7C0F939
:1029D000304670BD30000020440000202DE9FF4F3C
:1029E00085B0804689461746DDE912ABB800FFF78F
:1029F0003DF8064656B16C20FFF738F804460CB196
:102A0000266304E03046FFF7C1F900E000247CB102
:102A10000020CDE900ABCDE902403A4649464046A8
:102A2000089BFEF702FD2046FEF774FB012501E03E
:102A30004FF0FF35284609B0BDE8F08F0549096819
:102A400009B9012005E00449096809B9022000E03C
:102A50000020704738000020580000200149086815
:102A600070470000300000202DE9F0414FF00008D1
:102A70004348006800287BD142480068451C414813
:102A8000056015BB40480068006808B9012000E0F7
:102A9000002050B900BF502080F31188BFF34F8F42
:102AA000BFF36F8F00BF00BFFEE7374807683748A6
:102AB0000068354908603548076035480068401CA3
:102AC00033490860FEF7E6FE00BF324800688542E1
:102AD0003BD300BF2C480068006808B9012000E023
:102AE000002020B14FF0FF302A4908602CE0264832
:102AF0000068C068C4686668B54202D225480660AE
:102B000022E0201DFFF7B0F8A06A18B104F1180008
:102B1000FFF7AAF82049E06A0968884202D91E49ED
:102B2000E06A0860E16A01EB81011C4A02EB810066
:102B3000211DFFF7D7F81A49E06A0968C96A884277
:102B4000C8D34FF00108C5E700BF15480068C06A48
:102B500000EB8000114951F82000012801D94FF005
:102B600001081048006808B14FF0010805E0FFE7D0
:102B70000D480068401C0C4908604046BDE8F081E3
:102B800058000020300000202000002024000020F9
:102B9000440000204C00002034000020DC00002015
:102BA0001C000020400000203C00002070B50546BD
:102BB0002C460026002D43D022480068844201D1D3
:102BC000012000E0002050B900BF502080F31188A0
:102BD000BFF34F8FBFF36F8F00BF00BFFEE7206EC4
:102BE00050B900BF502080F31188BFF34F8FBFF35F
:102BF0006F8F00BF00BFFEE7206E401E2066E16DB4
:102C0000E06A88421CD0206ED0B9201DFFF72CF856
:102C1000E06DE062E06AC0F13800A0610A49E06A54
:102C20000968884202D90849E06A0860E16A01EB54
:102C30008101064A02EB8100211DFFF753F80126AE
:102C4000304670BD1C00002034000020DC00002055
:102C500070B50646F068C46854B900BF502080F3D0
:102C60001188BFF34F8FBFF36F8F00BF00BFFEE728
:102C700004F11800FEF7F8FF15480068A0B9201D00
:102C8000FEF7F2FF1349E06A0968884202D9114948
:102C9000E06A0860E16A01EB81010F4A02EB810002
:102CA000211DFFF71FF804E004F118010B48FFF79E
:102CB00019F80B49E06A0968C96A884204D90125F4
:102CC00001200849086000E00025284670BD00008A
:102CD0005800002034000020DC00002064050020A3
:102CE0001C0000204000002070B50024002636485B
:102CF000006850B900BF502080F31188BFF34F8F98
:102D0000BFF36F8F00BF00BFFEE7FEF7F7FF2E484F
:102D10000068401E2C4908600846006800284ED113
:102D20002A48006800284AD023E02948C068C468BF
:102D300004F11800FEF798FF201DFEF795FF2549C6
:102D4000E06A0968884202D92249E06A0860E16ABB
:102D500001EB8101204A02EB8100211DFEF7C2FF39
:102D60001E49E06A0968C96A884202D301201C49E9
:102D700008601748006808B9012000E0002000281A
:102D8000D3D00CB1FEF786FD1648056865B100BFCB
:102D9000FFF76AFE10B10120114908606D1E002D79
:102DA000F6D100200F4908600D48006838B10126AF
:102DB00030070D490860BFF34F8FBFF36F8FFEF7E9
:102DC000C7FF304670BD0000580000202C000020D6
:102DD0006405002034000020DC0000201C000020DE
:102DE000400000203C00002004ED00E01CB5002461
:102DF000FEF7ECF90D48006850B10D4802210023A0
:102E0000CA01CDE900100BA10C48FFF7E7FD04460D
:102E100054B900BF502080F31188BFF34F8FBFF328
:102E20006F8F00BF00BFFEE720461CBD640000207E
:102E300068000020546D722053766300D519000895
:102E40002DE9FF4704460D4616461F46DDF8308043
:102E50004FF0000954B900BF502080F31188BFF330
:102E60004F8FBFF36F8F00BF00BFFEE714480068AD
:102E700010B3009501960294062D15DAFFF7DEFDDA
:102E8000022808D10023424669460D480068FFF732
:102E900045FB814610E000231A4669460848006851
:102EA000FFF73CFB814607E000233A4669460448A9
:102EB0000068FFF707FC8146484604B0BDE8F0878C
:102EC0006400002000000000000000000102030474
:102ED000060708090000000001020304FC2E000898
:102EE000000000209C00000038100008982F000807
:102EF0009C0000202C450000481000080000000045
:102F000000000000000000000000000010000000B1
:102F1000010000000024F400000000000000000098
:102F200000000000000000000000000000000000A1
:102F30000000000000000000000000000000000091
:102F40000000000000000000000000000000000081
:102F5000370000000000000000000000000000003A
:102F6000000000000000000000000000AAAAAAAAB9
:102F70000000000000000000000000000000000051
:102F80000000000000000000000000000000000041
:082F9000000000000000000039
:040000050800019955
:00000001FF
