:020000040800F2
:100000000004002061000008000000000000000063
:1000100000000000000000000000000000000000E0
:1000200000000000000000000000000000000000D0
:1000300000000000000000000000000000000000C0
:1000400000000000000000000000000000000000B0
:100050000000000000000000CF000008E9000008D8
:1000600072B62248016841F015010160204801681C
:1000700081EA010141F4401101601E48016881EAF2
:10008000010141F0080101601B48016821F4E061B1
:1000900001601A48016841F0400101601848016898
:1000A00081EA010101601748016881EA01010160EC
:1000B0001548016841F0010101601448016841F0F0
:1000C0000101016062B6FEE7401EFDD17047104895
:1000D0000168104A136801F00101012901D183F47C
:1000E0000053136001607047704700001810024011
:1000F00004100140000801400CED00E000E100E0C8
:1001000006E400E0080001400C0401400004014046
:08011000140401400C10014031
:04000005080000618E
:00000001FF
