:020000040800F2
:1000000038070020390200084702000849020008AA
:100010004B0200084D0200084F02000800000000DB
:100020000000000000000000000000005102000875
:1000300053020008000000005502000857020008A3
:100040005902000859020008590200085902000824
:100050005902000859020008590200085902000814
:100060005902000859020008590200085902000804
:1000700059020008590200085902000859020008F4
:100080005902000859020008590200080000000047
:1000900000000000000000000000000059020008FD
:1000A00059020008590200085902000859020008C4
:1000B00059020008590200085902000859020008B4
:1000C00059020008590200085902000859020008A4
:1000D00059020008B105000859020008000000009C
:1000E00059020008590200085902000800000000E7
:1000F000000000000000000000000000590200089D
:1001000000000000590200085902000859020008C6
:1001100000000000000000000000000000000000DF
:100120005902000859020008590200085902000843
:10013000590200080000000000000000000000005C
:10014000000000000000000000000000590200084C
:100150005902000859020008590200085902000813
:1001600059020008590200080000000000000000C9
:10017000000000000000000000000000000000007F
:10018000000000005902000800000000000000000C
:10019000590200085902000800F002F800F03CF88B
:1001A0000AA090E8000C82448344AAF10107DA45D2
:1001B00001D100F031F8AFF2090EBAE80F0013F0E8
:1001C000010F18BFFB1A43F0010318477805000020
:1001D00098050000103A24BF78C878C1FAD85207B1
:1001E00024BF30C830C144BF04680C6070470000B1
:1001F0000023002400250026103A28BF78C1FBD830
:10020000520728BF30C148BF0B6070471FB500F0D0
:1002100093FA1FBD10B510BD00F037F81146FFF777
:10022000F5FF00F061FA00F055F803B4FFF7F2FFB4
:1002300003BC00F0FDF900000B48016841F47001B7
:1002400001600A480047FEE7FEE7FEE7FEE7FEE73B
:10025000FEE7FEE7FEE7FEE7FEE70000044805498B
:10026000054A064B7047000088ED00E09901000840
:100270003801002038070020380300203803002010
:1002800070477047704770477047754600F02CF80C
:10029000AE4605006946534620F00700854618B073
:1002A00020B5FFF7DBFFBDE820404FF000064FF020
:1002B00000074FF000084FF0000B21F00701AC469B
:1002C000ACE8C009ACE8C009ACE8C009ACE8C009BA
:1002D0008D46704710B50446AFF300802046BDE858
:1002E0001040FFF7A2BF000000487047D400002074
:1002F0002DE9F0470C46DDE90867002100258C4612
:1003000000BF60E04FF0010808FA01F504EA050CAF
:10031000AC4557D1D0F800804FEA410A4FF00309AD
:1003200009FA0AF928EA0908C0F80080D0F8008024
:100330004FEA410902FA09F948EA0908C0F80080C1
:10034000012A01D0022A27D1D0F808804FEA410AB9
:100350004FF0030909FA0AF928EA0908C0F80880E9
:10036000D0F808804FEA410906FA09F948EA090875
:10037000C0F80880D0F804904FF0010808FA01F89E
:1003800029EA0809C0F80490D0F8048003FA01F9BA
:1003900048EA0908C0F80480D0F80C804FEA410A06
:1003A0004FF0030909FA0AF928EA0908C0F80C8095
:1003B000D0F80C804FEA410907FA09F948EA090820
:1003C000C0F80C80491C10299CD3BDE8F0870000C0
:1003D0001CB51248006840F0040010490860012074
:1003E000032100230246CDE90010FF210C48FFF74E
:1003F0007FFF01200B4908600B49C1F884020949BD
:1004000008310860091D0860091D0860091D0860A1
:10041000091D08600449C1F89C021CBD3038024027
:100420000008024080024142000041424A0A520252
:100430000243014B1A60704708ED00E0F0B5044636
:100440000D4616461F461448006840F00100124948
:10045000086000201049083108600F4800680F4903
:1004600008400D4908600E48091D0860081F006813
:1004700020F48020091F0860002007490C31086023
:100480003B4632462946204600F00CF8002108463B
:10049000FFF7CCFFF0BD000000380240FFFFF6FE82
:1004A00010300024F0B504460D46002100203D4EDA
:1004B000366846F480363B4F3E6001E04E1CB1B2D8
:1004C000384E366806F400361EB941F6FF76B14262
:1004D000F4DB41F6FF76B14201D1012060E0314EFC
:1004E0004036366846F080562E4F40373E602E4EDE
:1004F000366846F440462C4F3E602A4E0836366831
:1005000046F48056274F08373E60264E366826F060
:100510008076244F3E6045EA84160127C7EB5207D8
:1005200046EA074646EA036646F480061D4F3F1D2D
:100530003E603E1F366846F080763F1F3E6000BF3B
:10054000184E366806F00076002EF9D0174E366841
:1005500046F48076154F3E603E46366846F4007697
:100560003E603E46366846F480663E603E463668EB
:1005700046F003063E600B4E0836366826F003064A
:10058000084F08373E603E46366846F002063E6039
:1005900000BF044E0836366806F00C06082EF8D167
:1005A000F0BD00000038024000700040003C0240F6
:1005B0001C49096801F0200109B31A494968C8B209
:1005C0001949098801F40041C9B91749098801F49A
:1005D000804161B10A2803D00021134A118020E034
:1005E0001149098841F400410F4A118019E00D2892
:1005F00006D10D49098841F480410B4A118010E071
:1006000009490988C1F30D01084A5054064909886F
:10061000491C054A118011460988C72901DD0021BE
:100620001180704700100140080000200C000020DD
:1006300000BF70474FF0E021096921F004014FF03D
:10064000E0221161C21700EB5272C2F3C702074BDE
:100650001A701946097801EB4102C2EBC1114FF63D
:10066000FF7202EAC101024A1180704700000020B7
:100670000200002070B504464FF4077094FBF0F0C0
:10068000C6B24FF4077094FBF0F100FB114085B245
:1006900005E04FF4077000F009F8701EC6B2002E96
:1006A000F7D115B1284600F001F870BD01460D4A9A
:1006B00012884A434FF0E0235A6100229A610122D6
:1006C0001A6100BF4FF0E022106900F001021AB178
:1006D00000F48032002AF5D000224FF0E0231A61A6
:1006E0009A6170470200002004230222194660200C
:1006F000FFF7A4FE6020FFF79DFFFFF769FE15E0FE
:1007000000200B49086001200A49C1F884024FF417
:10071000FA70FFF7AFFF0120054908600020054986
:10072000C1F884024FF4FA70FFF7A4FFE8E7000075
:1007300080024142000041424FF04070E1EE100A59
:100740007047000064070008000000200C00000053
:10075000D4010008700700080C0000202C070000DE
:10076000F001000800000000000000000000000090
:040000050800019955
:00000001FF
